{
  "contractName": "MonsterFactory",
  "abi": [
    {
      "anonymous": false,
      "inputs": [
        {
          "indexed": false,
          "internalType": "uint256",
          "name": "dna",
          "type": "uint256"
        }
      ],
      "name": "NewMonster",
      "type": "event"
    },
    {
      "constant": true,
      "inputs": [
        {
          "internalType": "uint256",
          "name": "",
          "type": "uint256"
        }
      ],
      "name": "monsterToIndex",
      "outputs": [
        {
          "internalType": "uint256",
          "name": "",
          "type": "uint256"
        }
      ],
      "payable": false,
      "stateMutability": "view",
      "type": "function"
    },
    {
      "constant": true,
      "inputs": [
        {
          "internalType": "uint256",
          "name": "",
          "type": "uint256"
        }
      ],
      "name": "monsterToOwner",
      "outputs": [
        {
          "internalType": "address payable",
          "name": "",
          "type": "address"
        }
      ],
      "payable": false,
      "stateMutability": "view",
      "type": "function"
    },
    {
      "constant": true,
      "inputs": [
        {
          "internalType": "uint256",
          "name": "",
          "type": "uint256"
        }
      ],
      "name": "monsters",
      "outputs": [
        {
          "internalType": "uint256",
          "name": "dna",
          "type": "uint256"
        },
        {
          "internalType": "uint256",
          "name": "price",
          "type": "uint256"
        },
        {
          "internalType": "bool",
          "name": "onSale",
          "type": "bool"
        }
      ],
      "payable": false,
      "stateMutability": "view",
      "type": "function"
    },
    {
      "constant": true,
      "inputs": [
        {
          "internalType": "uint256",
          "name": "",
          "type": "uint256"
        }
      ],
      "name": "monstersDna",
      "outputs": [
        {
          "internalType": "uint256",
          "name": "",
          "type": "uint256"
        }
      ],
      "payable": false,
      "stateMutability": "view",
      "type": "function"
    },
    {
      "constant": false,
      "inputs": [
        {
          "internalType": "uint256",
          "name": "_dna",
          "type": "uint256"
        }
      ],
      "name": "createRandomMonster",
      "outputs": [],
      "payable": false,
      "stateMutability": "nonpayable",
      "type": "function"
    },
    {
      "constant": false,
      "inputs": [
        {
          "internalType": "uint256",
          "name": "_monsterDna",
          "type": "uint256"
        }
      ],
      "name": "buyMonster",
      "outputs": [],
      "payable": true,
      "stateMutability": "payable",
      "type": "function"
    },
    {
      "constant": false,
      "inputs": [
        {
          "internalType": "uint256",
          "name": "_monsterDna",
          "type": "uint256"
        }
      ],
      "name": "setOnSale",
      "outputs": [],
      "payable": false,
      "stateMutability": "nonpayable",
      "type": "function"
    },
    {
      "constant": true,
      "inputs": [],
      "name": "getMonsters",
      "outputs": [
        {
          "internalType": "uint256[]",
          "name": "",
          "type": "uint256[]"
        }
      ],
      "payable": false,
      "stateMutability": "view",
      "type": "function"
    },
    {
      "constant": true,
      "inputs": [],
      "name": "getMonstersFromUser",
      "outputs": [
        {
          "internalType": "uint256[]",
          "name": "",
          "type": "uint256[]"
        }
      ],
      "payable": false,
      "stateMutability": "view",
      "type": "function"
    },
    {
      "constant": true,
      "inputs": [
        {
          "internalType": "uint256",
          "name": "_monsterDna",
          "type": "uint256"
        }
      ],
      "name": "getMonsterData",
      "outputs": [
        {
          "internalType": "uint256",
          "name": "",
          "type": "uint256"
        },
        {
          "internalType": "uint256",
          "name": "",
          "type": "uint256"
        },
        {
          "internalType": "bool",
          "name": "",
          "type": "bool"
        },
        {
          "internalType": "address",
          "name": "",
          "type": "address"
        }
      ],
      "payable": false,
      "stateMutability": "view",
      "type": "function"
    }
  ],
  "bytecode": "0x608060405234801561001057600080fd5b50610c75806100206000396000f3fe6080604052600436106100915760003560e01c8063c21ca27511610059578063c21ca2751461024c578063c2bebce5146102c7578063c54358b914610302578063d4916d0814610396578063f2c666ce146103d157610091565b8063154bd552146100965780632e1f7e95146100c4578063319e77131461011357806354877ae01461017f578063c0576b73146101eb575b600080fd5b6100c2600480360360208110156100ac57600080fd5b8101908080359060200190929190505050610420565b005b3480156100d057600080fd5b506100fd600480360360208110156100e757600080fd5b8101908080359060200190929190505050610677565b6040518082815260200191505060405180910390f35b34801561011f57600080fd5b5061012861068f565b6040518080602001828103825283818151815260200191508051906020019060200280838360005b8381101561016b578082015181840152602081019050610150565b505050509050019250505060405180910390f35b34801561018b57600080fd5b506101946106e7565b6040518080602001828103825283818151815260200191508051906020019060200280838360005b838110156101d75780820151818401526020810190506101bc565b505050509050019250505060405180910390f35b3480156101f757600080fd5b506102246004803603602081101561020e57600080fd5b810190808035906020019092919050505061084d565b6040518084815260200183815260200182151515158152602001935050505060405180910390f35b34801561025857600080fd5b506102856004803603602081101561026f57600080fd5b8101908080359060200190929190505050610891565b604051808273ffffffffffffffffffffffffffffffffffffffff1673ffffffffffffffffffffffffffffffffffffffff16815260200191505060405180910390f35b3480156102d357600080fd5b50610300600480360360208110156102ea57600080fd5b81019080803590602001909291905050506108c4565b005b34801561030e57600080fd5b5061033b6004803603602081101561032557600080fd5b81019080803590602001909291905050506108df565b60405180858152602001848152602001831515151581526020018273ffffffffffffffffffffffffffffffffffffffff1673ffffffffffffffffffffffffffffffffffffffff16815260200194505050505060405180910390f35b3480156103a257600080fd5b506103cf600480360360208110156103b957600080fd5b81019080803590602001909291905050506109ae565b005b3480156103dd57600080fd5b5061040a600480360360208110156103f457600080fd5b8101908080359060200190929190505050610a6c565b6040518082815260200191505060405180910390f35b6000600360008381526020019081526020016000205490506000818154811061044557fe5b90600052602060002090600302016001015434101561046357600080fd5b600115156000828154811061047457fe5b906000526020600020906003020160020160009054906101000a900460ff1615151461049f57600080fd5b6002600083815260200190815260200160002060009054906101000a900473ffffffffffffffffffffffffffffffffffffffff1673ffffffffffffffffffffffffffffffffffffffff166108fc349081150290604051600060405180830381858888f19350505050158015610518573d6000803e3d6000fd5b50600460006002600085815260200190815260200160002060009054906101000a900473ffffffffffffffffffffffffffffffffffffffff1673ffffffffffffffffffffffffffffffffffffffff1673ffffffffffffffffffffffffffffffffffffffff1681526020019081526020016000206000815480929190600190039190505550600460003373ffffffffffffffffffffffffffffffffffffffff1673ffffffffffffffffffffffffffffffffffffffff16815260200190815260200160002060008154809291906001019190505550336002600084815260200190815260200160002060006101000a81548173ffffffffffffffffffffffffffffffffffffffff021916908373ffffffffffffffffffffffffffffffffffffffff160217905550600080828154811061064b57fe5b906000526020600020906003020160020160006101000a81548160ff0219169083151502179055505050565b60036020528060005260406000206000915090505481565b606060018054806020026020016040519081016040528092919081815260200182805480156106dd57602002820191906000526020600020905b8154815260200190600101908083116106c9575b5050505050905090565b606080600460003373ffffffffffffffffffffffffffffffffffffffff1673ffffffffffffffffffffffffffffffffffffffff168152602001908152602001600020546040519080825280602002602001820160405280156107585781602001602082028038833980820191505090505b509050600080905060008090505b600080549050811015610844573373ffffffffffffffffffffffffffffffffffffffff166002600080848154811061079a57fe5b906000526020600020906003020160000154815260200190815260200160002060009054906101000a900473ffffffffffffffffffffffffffffffffffffffff1673ffffffffffffffffffffffffffffffffffffffff161415610837576000818154811061080457fe5b90600052602060002090600302016000015483838151811061082257fe5b60200260200101818152505081806001019250505b8080600101915050610766565b50819250505090565b6000818154811061085a57fe5b90600052602060002090600302016000915090508060000154908060010154908060020160009054906101000a900460ff16905083565b60026020528060005260406000206000915054906101000a900473ffffffffffffffffffffffffffffffffffffffff1681565b61ffff8111156108d357600080fd5b6108dc81610a8d565b50565b6000806000806000600360008781526020019081526020016000205490506000818154811061090a57fe5b9060005260206000209060030201600001546000828154811061092957fe5b9060005260206000209060030201600101546000838154811061094857fe5b906000526020600020906003020160020160009054906101000a900460ff16600260008a815260200190815260200160002060009054906101000a900473ffffffffffffffffffffffffffffffffffffffff168090509450945094509450509193509193565b6002600082815260200190815260200160002060009054906101000a900473ffffffffffffffffffffffffffffffffffffffff1673ffffffffffffffffffffffffffffffffffffffff163373ffffffffffffffffffffffffffffffffffffffff1614610a1957600080fd5b600060036000838152602001908152602001600020549050600160008281548110610a4057fe5b906000526020600020906003020160020160006101000a81548160ff0219169083151502179055505050565b60018181548110610a7957fe5b906000526020600020016000915090505481565b60006040518060600160405280838152602001620f4240620186a085020181526020016000151581525090806001815401808255809150509060018203906000526020600020906003020160009091929091909150600082015181600001556020820151816001015560408201518160020160006101000a81548160ff02191690831515021790555050505060018190806001815401808255809150509060018203906000526020600020016000909192909190915055506001600080549050036003600083815260200190815260200160002081905550336002600083815260200190815260200160002060006101000a81548173ffffffffffffffffffffffffffffffffffffffff021916908373ffffffffffffffffffffffffffffffffffffffff160217905550600460003373ffffffffffffffffffffffffffffffffffffffff1673ffffffffffffffffffffffffffffffffffffffff168152602001908152602001600020600081548092919060010191905055507ffda9645aaa606f773ddfda14ccbb47d27f5aa340212105613e78cd995ed49ec2816040518082815260200191505060405180910390a15056fea265627a7a723158202602ba0ed2109b090f19323b2435fdee284ea9b54c209ed021afaf8bca45638b64736f6c63430005100032",
  "source": "pragma solidity >=0.5.0 <0.6.0;\n\ncontract MonsterFactory {\n  event NewMonster(uint256 dna);\n\n  struct Monster {\n    uint256 dna;\n    // Price in Gwei\n    uint256 price;\n    bool onSale;\n  }\n\n  Monster[] public monsters;\n  uint256[] public monstersDna;\n\n  mapping(uint256 => address payable) public monsterToOwner;\n  mapping(uint256 => uint256) public monsterToIndex;\n  mapping(address => uint256) ownerMonsterCount;\n\n  function _createMonster(uint256 _dna) internal {\n    monsters.push(Monster(_dna, _dna * 100000 + 1000000, false));\n    monstersDna.push(_dna);\n    monsterToIndex[_dna] = monsters.length - 1;\n    monsterToOwner[_dna] = msg.sender;\n    ownerMonsterCount[msg.sender]++;\n    emit NewMonster(_dna);\n  }\n\n  function createRandomMonster(uint256 _dna) public {\n    require(_dna <= 65535);\n    _createMonster(_dna);\n  }\n\n  // Transfer ownership of a monster\n  function buyMonster(uint256 _monsterDna) payable external {\n    uint index = monsterToIndex[_monsterDna];\n    require(msg.value >= monsters[index].price);\n    require(monsters[index].onSale == true);\n    monsterToOwner[_monsterDna].transfer(msg.value);\n    ownerMonsterCount[monsterToOwner[_monsterDna]]--;\n    ownerMonsterCount[msg.sender]++;\n    monsterToOwner[_monsterDna] = msg.sender;\n    monsters[index].onSale = false;\n  }\n\n  function setOnSale(uint256 _monsterDna) public {\n    require(msg.sender == monsterToOwner[_monsterDna]);\n    uint index = monsterToIndex[_monsterDna];\n    monsters[index].onSale = true;\n  }\n\n  function getMonsters() public view returns (uint256[] memory)  {\n    return monstersDna;\n  }\n\n  function getMonstersFromUser() public view returns (uint256[] memory)  {\n    uint256[] memory ownerMonstersDnas = new uint256[](ownerMonsterCount[msg.sender]);\n    uint counter = 0;\n    for (uint i=0; i < monsters.length; i++) {\n      if (monsterToOwner[monsters[i].dna] == msg.sender) {\n        ownerMonstersDnas[counter] = monsters[i].dna;\n        counter++;\n      }\n    }\n    return ownerMonstersDnas;\n  }\n\n  function getMonsterData(uint256 _monsterDna) public view returns (uint256, uint256, bool, address)  {\n    uint index = monsterToIndex[_monsterDna];\n    return (monsters[index].dna, monsters[index].price, monsters[index].onSale, monsterToOwner[_monsterDna]);\n  }\n}\n",
  "sourcePath": "/Users/mllauro/Facultad/Celdas/Tp2/crypto-monsters/contracts/MonsterFactory.sol",
  "compiler": {
    "name": "solc",
    "version": "0.5.16+commit.9c3226ce.Emscripten.clang"
  },
  "schemaVersion": "3.3.3",
  "updatedAt": "2021-02-08T18:19:35.858Z",
  "networkType": "ethereum",
  "devdoc": {
    "methods": {}
  },
  "userdoc": {
    "methods": {}
  }
}