{
  "contractName": "MonsterFactory",
  "abi": [
    {
      "anonymous": false,
      "inputs": [
        {
          "indexed": false,
          "internalType": "uint256",
          "name": "dna",
          "type": "uint256"
        }
      ],
      "name": "NewMonster",
      "type": "event"
    },
    {
      "constant": true,
      "inputs": [
        {
          "internalType": "uint256",
          "name": "",
          "type": "uint256"
        }
      ],
      "name": "monsterToIndex",
      "outputs": [
        {
          "internalType": "uint256",
          "name": "",
          "type": "uint256"
        }
      ],
      "payable": false,
      "stateMutability": "view",
      "type": "function"
    },
    {
      "constant": true,
      "inputs": [
        {
          "internalType": "uint256",
          "name": "",
          "type": "uint256"
        }
      ],
      "name": "monsterToOwner",
      "outputs": [
        {
          "internalType": "address payable",
          "name": "",
          "type": "address"
        }
      ],
      "payable": false,
      "stateMutability": "view",
      "type": "function"
    },
    {
      "constant": true,
      "inputs": [
        {
          "internalType": "uint256",
          "name": "",
          "type": "uint256"
        }
      ],
      "name": "monsters",
      "outputs": [
        {
          "internalType": "uint256",
          "name": "dna",
          "type": "uint256"
        },
        {
          "internalType": "uint256",
          "name": "price",
          "type": "uint256"
        },
        {
          "internalType": "bool",
          "name": "onSale",
          "type": "bool"
        }
      ],
      "payable": false,
      "stateMutability": "view",
      "type": "function"
    },
    {
      "constant": true,
      "inputs": [
        {
          "internalType": "uint256",
          "name": "",
          "type": "uint256"
        }
      ],
      "name": "monstersDna",
      "outputs": [
        {
          "internalType": "uint256",
          "name": "",
          "type": "uint256"
        }
      ],
      "payable": false,
      "stateMutability": "view",
      "type": "function"
    },
    {
      "constant": true,
      "inputs": [
        {
          "internalType": "address",
          "name": "",
          "type": "address"
        }
      ],
      "name": "ownerMonsterCount",
      "outputs": [
        {
          "internalType": "uint256",
          "name": "",
          "type": "uint256"
        }
      ],
      "payable": false,
      "stateMutability": "view",
      "type": "function"
    },
    {
      "constant": false,
      "inputs": [
        {
          "internalType": "uint256",
          "name": "_dna",
          "type": "uint256"
        }
      ],
      "name": "createMonster",
      "outputs": [],
      "payable": false,
      "stateMutability": "nonpayable",
      "type": "function"
    },
    {
      "constant": false,
      "inputs": [
        {
          "internalType": "uint256",
          "name": "_monsterDna",
          "type": "uint256"
        },
        {
          "internalType": "address payable",
          "name": "_monsterOwner",
          "type": "address"
        },
        {
          "internalType": "address payable",
          "name": "_newOwner",
          "type": "address"
        }
      ],
      "name": "buyMonster",
      "outputs": [],
      "payable": true,
      "stateMutability": "payable",
      "type": "function"
    },
    {
      "constant": false,
      "inputs": [
        {
          "internalType": "uint256",
          "name": "_monsterDna",
          "type": "uint256"
        }
      ],
      "name": "setOnSale",
      "outputs": [],
      "payable": false,
      "stateMutability": "nonpayable",
      "type": "function"
    },
    {
      "constant": true,
      "inputs": [],
      "name": "getMonsters",
      "outputs": [
        {
          "internalType": "uint256[]",
          "name": "",
          "type": "uint256[]"
        }
      ],
      "payable": false,
      "stateMutability": "view",
      "type": "function"
    },
    {
      "constant": true,
      "inputs": [],
      "name": "getMonstersFromUser",
      "outputs": [
        {
          "internalType": "uint256[]",
          "name": "",
          "type": "uint256[]"
        }
      ],
      "payable": false,
      "stateMutability": "view",
      "type": "function"
    },
    {
      "constant": true,
      "inputs": [
        {
          "internalType": "uint256",
          "name": "_monsterDna",
          "type": "uint256"
        }
      ],
      "name": "getMonsterData",
      "outputs": [
        {
          "internalType": "uint256",
          "name": "",
          "type": "uint256"
        },
        {
          "internalType": "uint256",
          "name": "",
          "type": "uint256"
        },
        {
          "internalType": "bool",
          "name": "",
          "type": "bool"
        },
        {
          "internalType": "address",
          "name": "",
          "type": "address"
        }
      ],
      "payable": false,
      "stateMutability": "view",
      "type": "function"
    }
  ],
  "bytecode": "0x608060405234801561001057600080fd5b50610d8c806100206000396000f3fe60806040526004361061009c5760003560e01c806373bd6bf41161006457806373bd6bf414610271578063c0576b73146102d6578063c21ca27514610337578063c54358b9146103b2578063d4916d0814610446578063f2c666ce146104815761009c565b8063032ff6f4146100a157806316564499146100dc5780632e1f7e951461014a578063319e77131461019957806354877ae014610205575b600080fd5b3480156100ad57600080fd5b506100da600480360360208110156100c457600080fd5b81019080803590602001909291905050506104d0565b005b610148600480360360608110156100f257600080fd5b8101908080359060200190929190803573ffffffffffffffffffffffffffffffffffffffff169060200190929190803573ffffffffffffffffffffffffffffffffffffffff169060200190929190505050610537565b005b34801561015657600080fd5b506101836004803603602081101561016d57600080fd5b810190808035906020019092919050505061079b565b6040518082815260200191505060405180910390f35b3480156101a557600080fd5b506101ae6107b3565b6040518080602001828103825283818151815260200191508051906020019060200280838360005b838110156101f15780820151818401526020810190506101d6565b505050509050019250505060405180910390f35b34801561021157600080fd5b5061021a61080b565b6040518080602001828103825283818151815260200191508051906020019060200280838360005b8381101561025d578082015181840152602081019050610242565b505050509050019250505060405180910390f35b34801561027d57600080fd5b506102c06004803603602081101561029457600080fd5b81019080803573ffffffffffffffffffffffffffffffffffffffff169060200190929190505050610971565b6040518082815260200191505060405180910390f35b3480156102e257600080fd5b5061030f600480360360208110156102f957600080fd5b8101908080359060200190929190505050610989565b6040518084815260200183815260200182151515158152602001935050505060405180910390f35b34801561034357600080fd5b506103706004803603602081101561035a57600080fd5b81019080803590602001909291905050506109cd565b604051808273ffffffffffffffffffffffffffffffffffffffff1673ffffffffffffffffffffffffffffffffffffffff16815260200191505060405180910390f35b3480156103be57600080fd5b506103eb600480360360208110156103d557600080fd5b8101908080359060200190929190505050610a00565b60405180858152602001848152602001831515151581526020018273ffffffffffffffffffffffffffffffffffffffff1673ffffffffffffffffffffffffffffffffffffffff16815260200194505050505060405180910390f35b34801561045257600080fd5b5061047f6004803603602081101561046957600080fd5b8101908080359060200190929190505050610acf565b005b34801561048d57600080fd5b506104ba600480360360208110156104a457600080fd5b8101908080359060200190929190505050610b8d565b6040518082815260200191505060405180910390f35b61ffff8111156104df57600080fd5b6000600460003373ffffffffffffffffffffffffffffffffffffffff1673ffffffffffffffffffffffffffffffffffffffff168152602001908152602001600020541461052b57600080fd5b61053481610bae565b50565b6000600360008581526020019081526020016000205490506000818154811061055c57fe5b90600052602060002090600302016001015434101561057a57600080fd5b600115156000828154811061058b57fe5b906000526020600020906003020160020160009054906101000a900460ff161515146105b657600080fd5b8173ffffffffffffffffffffffffffffffffffffffff163373ffffffffffffffffffffffffffffffffffffffff16146105ee57600080fd5b8173ffffffffffffffffffffffffffffffffffffffff168373ffffffffffffffffffffffffffffffffffffffff16141561062757600080fd5b600460008473ffffffffffffffffffffffffffffffffffffffff1673ffffffffffffffffffffffffffffffffffffffff1681526020019081526020016000206000815480929190600190039190505550600460008373ffffffffffffffffffffffffffffffffffffffff1673ffffffffffffffffffffffffffffffffffffffff16815260200190815260200160002060008154809291906001019190505550336002600086815260200190815260200160002060006101000a81548173ffffffffffffffffffffffffffffffffffffffff021916908373ffffffffffffffffffffffffffffffffffffffff160217905550600080828154811061072657fe5b906000526020600020906003020160020160006101000a81548160ff0219169083151502179055508273ffffffffffffffffffffffffffffffffffffffff166108fc349081150290604051600060405180830381858888f19350505050158015610794573d6000803e3d6000fd5b5050505050565b60036020528060005260406000206000915090505481565b6060600180548060200260200160405190810160405280929190818152602001828054801561080157602002820191906000526020600020905b8154815260200190600101908083116107ed575b5050505050905090565b606080600460003373ffffffffffffffffffffffffffffffffffffffff1673ffffffffffffffffffffffffffffffffffffffff1681526020019081526020016000205460405190808252806020026020018201604052801561087c5781602001602082028038833980820191505090505b509050600080905060008090505b600080549050811015610968573373ffffffffffffffffffffffffffffffffffffffff16600260008084815481106108be57fe5b906000526020600020906003020160000154815260200190815260200160002060009054906101000a900473ffffffffffffffffffffffffffffffffffffffff1673ffffffffffffffffffffffffffffffffffffffff16141561095b576000818154811061092857fe5b90600052602060002090600302016000015483838151811061094657fe5b60200260200101818152505081806001019250505b808060010191505061088a565b50819250505090565b60046020528060005260406000206000915090505481565b6000818154811061099657fe5b90600052602060002090600302016000915090508060000154908060010154908060020160009054906101000a900460ff16905083565b60026020528060005260406000206000915054906101000a900473ffffffffffffffffffffffffffffffffffffffff1681565b60008060008060006003600087815260200190815260200160002054905060008181548110610a2b57fe5b90600052602060002090600302016000015460008281548110610a4a57fe5b90600052602060002090600302016001015460008381548110610a6957fe5b906000526020600020906003020160020160009054906101000a900460ff16600260008a815260200190815260200160002060009054906101000a900473ffffffffffffffffffffffffffffffffffffffff168090509450945094509450509193509193565b6002600082815260200190815260200160002060009054906101000a900473ffffffffffffffffffffffffffffffffffffffff1673ffffffffffffffffffffffffffffffffffffffff163373ffffffffffffffffffffffffffffffffffffffff1614610b3a57600080fd5b600060036000838152602001908152602001600020549050600160008281548110610b6157fe5b906000526020600020906003020160020160006101000a81548160ff0219169083151502179055505050565b60018181548110610b9a57fe5b906000526020600020016000915090505481565b60006040518060600160405280838152602001620f4240620186a085020181526020016000151581525090806001815401808255809150509060018203906000526020600020906003020160009091929091909150600082015181600001556020820151816001015560408201518160020160006101000a81548160ff02191690831515021790555050505060018190806001815401808255809150509060018203906000526020600020016000909192909190915055506001600080549050036003600083815260200190815260200160002081905550336002600083815260200190815260200160002060006101000a81548173ffffffffffffffffffffffffffffffffffffffff021916908373ffffffffffffffffffffffffffffffffffffffff1602179055506001600460003373ffffffffffffffffffffffffffffffffffffffff1673ffffffffffffffffffffffffffffffffffffffff168152602001908152602001600020819055507ffda9645aaa606f773ddfda14ccbb47d27f5aa340212105613e78cd995ed49ec2816040518082815260200191505060405180910390a15056fea265627a7a72315820fac4a522659e975714a953ce20c050f0ff3c628de63607d28dbeffea078d943c64736f6c63430005100032",
  "source": "pragma solidity >=0.5.0 <0.6.0;\n\ncontract MonsterFactory {\n  event NewMonster(uint256 dna);\n\n  struct Monster {\n    uint256 dna;\n    // Price in Gwei\n    uint256 price;\n    bool onSale;\n  }\n\n  Monster[] public monsters;\n  uint256[] public monstersDna;\n\n  mapping(uint256 => address payable) public monsterToOwner;\n  mapping(uint256 => uint256) public monsterToIndex;\n  mapping(address => uint256) public ownerMonsterCount;\n\n  function _createMonster(uint256 _dna) internal {\n    monsters.push(Monster(_dna, _dna * 100000 + 1000000, false));\n    monstersDna.push(_dna);\n    monsterToIndex[_dna] = monsters.length - 1;\n    monsterToOwner[_dna] = msg.sender;\n    ownerMonsterCount[msg.sender] = 1;\n    emit NewMonster(_dna);\n  }\n\n  function createMonster(uint256 _dna) public {\n    require(_dna <= 65535);\n    require(ownerMonsterCount[msg.sender] == 0);\n    _createMonster(_dna);\n  }\n\n  // Transfer ownership of a monster\n  function buyMonster(uint256 _monsterDna, address payable _monsterOwner, address payable _newOwner) payable public {\n    uint index = monsterToIndex[_monsterDna];\n    require(msg.value >= monsters[index].price);\n    require(monsters[index].onSale == true);\n    require(msg.sender == _newOwner);\n    require(_monsterOwner != _newOwner);\n    ownerMonsterCount[_monsterOwner]--;\n    ownerMonsterCount[_newOwner]++;\n    monsterToOwner[_monsterDna] = msg.sender;\n    monsters[index].onSale = false;\n    _monsterOwner.transfer(msg.value);\n  }\n\n  function setOnSale(uint256 _monsterDna) public {\n    require(msg.sender == monsterToOwner[_monsterDna]);\n    uint index = monsterToIndex[_monsterDna];\n    monsters[index].onSale = true;\n  }\n\n  function getMonsters() public view returns (uint256[] memory)  {\n    return monstersDna;\n  }\n\n  function getMonstersFromUser() public view returns (uint256[] memory)  {\n    uint256[] memory ownerMonstersDnas = new uint256[](ownerMonsterCount[msg.sender]);\n    uint counter = 0;\n    for (uint i=0; i < monsters.length; i++) {\n      if (monsterToOwner[monsters[i].dna] == msg.sender) {\n        ownerMonstersDnas[counter] = monsters[i].dna;\n        counter++;\n      }\n    }\n    return ownerMonstersDnas;\n  }\n\n  function getMonsterData(uint256 _monsterDna) public view returns (uint256, uint256, bool, address)  {\n    uint index = monsterToIndex[_monsterDna];\n    return (monsters[index].dna, monsters[index].price, monsters[index].onSale, monsterToOwner[_monsterDna]);\n  }\n}\n",
  "sourcePath": "/Users/mllauro/Facultad/Celdas/Tp2/crypto-monsters/contracts/MonsterFactory.sol",
  "compiler": {
    "name": "solc",
    "version": "0.5.16+commit.9c3226ce.Emscripten.clang"
  },
  "schemaVersion": "3.3.3",
  "updatedAt": "2021-02-10T22:02:30.550Z",
  "networkType": "ethereum",
  "devdoc": {
    "methods": {}
  },
  "userdoc": {
    "methods": {}
  }
}