{
  "contractName": "MonsterFactory",
  "abi": [
    {
      "anonymous": false,
      "inputs": [
        {
          "indexed": false,
          "internalType": "uint256",
          "name": "dna",
          "type": "uint256"
        }
      ],
      "name": "NewMonster",
      "type": "event"
    },
    {
      "constant": true,
      "inputs": [
        {
          "internalType": "uint256",
          "name": "",
          "type": "uint256"
        }
      ],
      "name": "monsterToIndex",
      "outputs": [
        {
          "internalType": "uint256",
          "name": "",
          "type": "uint256"
        }
      ],
      "payable": false,
      "stateMutability": "view",
      "type": "function"
    },
    {
      "constant": true,
      "inputs": [
        {
          "internalType": "uint256",
          "name": "",
          "type": "uint256"
        }
      ],
      "name": "monsterToOwner",
      "outputs": [
        {
          "internalType": "address payable",
          "name": "",
          "type": "address"
        }
      ],
      "payable": false,
      "stateMutability": "view",
      "type": "function"
    },
    {
      "constant": true,
      "inputs": [
        {
          "internalType": "uint256",
          "name": "",
          "type": "uint256"
        }
      ],
      "name": "monsters",
      "outputs": [
        {
          "internalType": "uint256",
          "name": "dna",
          "type": "uint256"
        },
        {
          "internalType": "uint256",
          "name": "price",
          "type": "uint256"
        },
        {
          "internalType": "bool",
          "name": "onSale",
          "type": "bool"
        }
      ],
      "payable": false,
      "stateMutability": "view",
      "type": "function"
    },
    {
      "constant": true,
      "inputs": [
        {
          "internalType": "uint256",
          "name": "",
          "type": "uint256"
        }
      ],
      "name": "monstersDna",
      "outputs": [
        {
          "internalType": "uint256",
          "name": "",
          "type": "uint256"
        }
      ],
      "payable": false,
      "stateMutability": "view",
      "type": "function"
    },
    {
      "constant": true,
      "inputs": [
        {
          "internalType": "address",
          "name": "",
          "type": "address"
        }
      ],
      "name": "ownerMonsterCount",
      "outputs": [
        {
          "internalType": "uint256",
          "name": "",
          "type": "uint256"
        }
      ],
      "payable": false,
      "stateMutability": "view",
      "type": "function"
    },
    {
      "constant": false,
      "inputs": [
        {
          "internalType": "uint256",
          "name": "_dna",
          "type": "uint256"
        }
      ],
      "name": "createRandomMonster",
      "outputs": [],
      "payable": false,
      "stateMutability": "nonpayable",
      "type": "function"
    },
    {
      "constant": false,
      "inputs": [
        {
          "internalType": "uint256",
          "name": "_monsterDna",
          "type": "uint256"
        }
      ],
      "name": "buyMonster",
      "outputs": [],
      "payable": true,
      "stateMutability": "payable",
      "type": "function"
    },
    {
      "constant": false,
      "inputs": [
        {
          "internalType": "uint256",
          "name": "_monsterDna",
          "type": "uint256"
        }
      ],
      "name": "setOnSale",
      "outputs": [],
      "payable": false,
      "stateMutability": "nonpayable",
      "type": "function"
    },
    {
      "constant": true,
      "inputs": [],
      "name": "getMonsters",
      "outputs": [
        {
          "internalType": "uint256[]",
          "name": "",
          "type": "uint256[]"
        }
      ],
      "payable": false,
      "stateMutability": "view",
      "type": "function"
    },
    {
      "constant": true,
      "inputs": [],
      "name": "getMonstersFromUser",
      "outputs": [
        {
          "internalType": "uint256[]",
          "name": "",
          "type": "uint256[]"
        }
      ],
      "payable": false,
      "stateMutability": "view",
      "type": "function"
    },
    {
      "constant": true,
      "inputs": [
        {
          "internalType": "uint256",
          "name": "_monsterDna",
          "type": "uint256"
        }
      ],
      "name": "getMonsterData",
      "outputs": [
        {
          "internalType": "uint256",
          "name": "",
          "type": "uint256"
        },
        {
          "internalType": "uint256",
          "name": "",
          "type": "uint256"
        },
        {
          "internalType": "bool",
          "name": "",
          "type": "bool"
        },
        {
          "internalType": "address",
          "name": "",
          "type": "address"
        }
      ],
      "payable": false,
      "stateMutability": "view",
      "type": "function"
    }
  ],
  "bytecode": "0x608060405234801561001057600080fd5b50610cd0806100206000396000f3fe60806040526004361061009c5760003560e01c8063c0576b7311610064578063c0576b731461025b578063c21ca275146102bc578063c2bebce514610337578063c54358b914610372578063d4916d0814610406578063f2c666ce146104415761009c565b8063154bd552146100a15780632e1f7e95146100cf578063319e77131461011e57806354877ae01461018a57806373bd6bf4146101f6575b600080fd5b6100cd600480360360208110156100b757600080fd5b8101908080359060200190929190505050610490565b005b3480156100db57600080fd5b50610108600480360360208110156100f257600080fd5b81019080803590602001909291905050506106ba565b6040518082815260200191505060405180910390f35b34801561012a57600080fd5b506101336106d2565b6040518080602001828103825283818151815260200191508051906020019060200280838360005b8381101561017657808201518184015260208101905061015b565b505050509050019250505060405180910390f35b34801561019657600080fd5b5061019f61072a565b6040518080602001828103825283818151815260200191508051906020019060200280838360005b838110156101e25780820151818401526020810190506101c7565b505050509050019250505060405180910390f35b34801561020257600080fd5b506102456004803603602081101561021957600080fd5b81019080803573ffffffffffffffffffffffffffffffffffffffff169060200190929190505050610890565b6040518082815260200191505060405180910390f35b34801561026757600080fd5b506102946004803603602081101561027e57600080fd5b81019080803590602001909291905050506108a8565b6040518084815260200183815260200182151515158152602001935050505060405180910390f35b3480156102c857600080fd5b506102f5600480360360208110156102df57600080fd5b81019080803590602001909291905050506108ec565b604051808273ffffffffffffffffffffffffffffffffffffffff1673ffffffffffffffffffffffffffffffffffffffff16815260200191505060405180910390f35b34801561034357600080fd5b506103706004803603602081101561035a57600080fd5b810190808035906020019092919050505061091f565b005b34801561037e57600080fd5b506103ab6004803603602081101561039557600080fd5b810190808035906020019092919050505061093a565b60405180858152602001848152602001831515151581526020018273ffffffffffffffffffffffffffffffffffffffff1673ffffffffffffffffffffffffffffffffffffffff16815260200194505050505060405180910390f35b34801561041257600080fd5b5061043f6004803603602081101561042957600080fd5b8101908080359060200190929190505050610a09565b005b34801561044d57600080fd5b5061047a6004803603602081101561046457600080fd5b8101908080359060200190929190505050610ac7565b6040518082815260200191505060405180910390f35b600060036000838152602001908152602001600020549050600081815481106104b557fe5b9060005260206000209060030201600101543410156104d357600080fd5b60011515600082815481106104e457fe5b906000526020600020906003020160020160009054906101000a900460ff1615151461050f57600080fd5b60006002600084815260200190815260200160002060009054906101000a900473ffffffffffffffffffffffffffffffffffffffff1690508073ffffffffffffffffffffffffffffffffffffffff166108fc349081150290604051600060405180830381858888f1935050505015801561058d573d6000803e3d6000fd5b50600460008273ffffffffffffffffffffffffffffffffffffffff1673ffffffffffffffffffffffffffffffffffffffff1681526020019081526020016000206000815480929190600190039190505550600460003373ffffffffffffffffffffffffffffffffffffffff1673ffffffffffffffffffffffffffffffffffffffff16815260200190815260200160002060008154809291906001019190505550336002600085815260200190815260200160002060006101000a81548173ffffffffffffffffffffffffffffffffffffffff021916908373ffffffffffffffffffffffffffffffffffffffff160217905550600080838154811061068d57fe5b906000526020600020906003020160020160006101000a81548160ff021916908315150217905550505050565b60036020528060005260406000206000915090505481565b6060600180548060200260200160405190810160405280929190818152602001828054801561072057602002820191906000526020600020905b81548152602001906001019080831161070c575b5050505050905090565b606080600460003373ffffffffffffffffffffffffffffffffffffffff1673ffffffffffffffffffffffffffffffffffffffff1681526020019081526020016000205460405190808252806020026020018201604052801561079b5781602001602082028038833980820191505090505b509050600080905060008090505b600080549050811015610887573373ffffffffffffffffffffffffffffffffffffffff16600260008084815481106107dd57fe5b906000526020600020906003020160000154815260200190815260200160002060009054906101000a900473ffffffffffffffffffffffffffffffffffffffff1673ffffffffffffffffffffffffffffffffffffffff16141561087a576000818154811061084757fe5b90600052602060002090600302016000015483838151811061086557fe5b60200260200101818152505081806001019250505b80806001019150506107a9565b50819250505090565b60046020528060005260406000206000915090505481565b600081815481106108b557fe5b90600052602060002090600302016000915090508060000154908060010154908060020160009054906101000a900460ff16905083565b60026020528060005260406000206000915054906101000a900473ffffffffffffffffffffffffffffffffffffffff1681565b61ffff81111561092e57600080fd5b61093781610ae8565b50565b6000806000806000600360008781526020019081526020016000205490506000818154811061096557fe5b9060005260206000209060030201600001546000828154811061098457fe5b906000526020600020906003020160010154600083815481106109a357fe5b906000526020600020906003020160020160009054906101000a900460ff16600260008a815260200190815260200160002060009054906101000a900473ffffffffffffffffffffffffffffffffffffffff168090509450945094509450509193509193565b6002600082815260200190815260200160002060009054906101000a900473ffffffffffffffffffffffffffffffffffffffff1673ffffffffffffffffffffffffffffffffffffffff163373ffffffffffffffffffffffffffffffffffffffff1614610a7457600080fd5b600060036000838152602001908152602001600020549050600160008281548110610a9b57fe5b906000526020600020906003020160020160006101000a81548160ff0219169083151502179055505050565b60018181548110610ad457fe5b906000526020600020016000915090505481565b60006040518060600160405280838152602001620f4240620186a085020181526020016000151581525090806001815401808255809150509060018203906000526020600020906003020160009091929091909150600082015181600001556020820151816001015560408201518160020160006101000a81548160ff02191690831515021790555050505060018190806001815401808255809150509060018203906000526020600020016000909192909190915055506001600080549050036003600083815260200190815260200160002081905550336002600083815260200190815260200160002060006101000a81548173ffffffffffffffffffffffffffffffffffffffff021916908373ffffffffffffffffffffffffffffffffffffffff160217905550600460003373ffffffffffffffffffffffffffffffffffffffff1673ffffffffffffffffffffffffffffffffffffffff168152602001908152602001600020600081548092919060010191905055507ffda9645aaa606f773ddfda14ccbb47d27f5aa340212105613e78cd995ed49ec2816040518082815260200191505060405180910390a15056fea265627a7a72315820fff74fbde022e0c63fe8129094bff72e2503c0f7c3d9c13d7ad9e70789a2e35064736f6c63430005100032",
  "source": "pragma solidity >=0.5.0 <0.6.0;\n\ncontract MonsterFactory {\n  event NewMonster(uint256 dna);\n\n  struct Monster {\n    uint256 dna;\n    // Price in Gwei\n    uint256 price;\n    bool onSale;\n  }\n\n  Monster[] public monsters;\n  uint256[] public monstersDna;\n\n  mapping(uint256 => address payable) public monsterToOwner;\n  mapping(uint256 => uint256) public monsterToIndex;\n  mapping(address => uint256) public ownerMonsterCount;\n\n  function _createMonster(uint256 _dna) internal {\n    monsters.push(Monster(_dna, _dna * 100000 + 1000000, false));\n    monstersDna.push(_dna);\n    monsterToIndex[_dna] = monsters.length - 1;\n    monsterToOwner[_dna] = msg.sender;\n    ownerMonsterCount[msg.sender]++;\n    emit NewMonster(_dna);\n  }\n\n  function createRandomMonster(uint256 _dna) public {\n    require(_dna <= 65535);\n    _createMonster(_dna);\n  }\n\n  // Transfer ownership of a monster\n  function buyMonster(uint256 _monsterDna) payable public {\n    uint index = monsterToIndex[_monsterDna];\n    require(msg.value >= monsters[index].price);\n    require(monsters[index].onSale == true);\n    address payable owner = monsterToOwner[_monsterDna];\n    owner.transfer(msg.value);\n    ownerMonsterCount[owner]--;\n    ownerMonsterCount[msg.sender]++;\n    monsterToOwner[_monsterDna] = msg.sender;\n    monsters[index].onSale = false;\n  }\n\n  function setOnSale(uint256 _monsterDna) public {\n    require(msg.sender == monsterToOwner[_monsterDna]);\n    uint index = monsterToIndex[_monsterDna];\n    monsters[index].onSale = true;\n  }\n\n  function getMonsters() public view returns (uint256[] memory)  {\n    return monstersDna;\n  }\n\n  function getMonstersFromUser() public view returns (uint256[] memory)  {\n    uint256[] memory ownerMonstersDnas = new uint256[](ownerMonsterCount[msg.sender]);\n    uint counter = 0;\n    for (uint i=0; i < monsters.length; i++) {\n      if (monsterToOwner[monsters[i].dna] == msg.sender) {\n        ownerMonstersDnas[counter] = monsters[i].dna;\n        counter++;\n      }\n    }\n    return ownerMonstersDnas;\n  }\n\n  function getMonsterData(uint256 _monsterDna) public view returns (uint256, uint256, bool, address)  {\n    uint index = monsterToIndex[_monsterDna];\n    return (monsters[index].dna, monsters[index].price, monsters[index].onSale, monsterToOwner[_monsterDna]);\n  }\n}\n",
  "sourcePath": "/Users/mllauro/Facultad/Celdas/Tp2/crypto-monsters/contracts/MonsterFactory.sol",
  "compiler": {
    "name": "solc",
    "version": "0.5.16+commit.9c3226ce.Emscripten.clang"
  },
  "schemaVersion": "3.3.3",
  "updatedAt": "2021-02-08T20:08:49.281Z",
  "networkType": "ethereum",
  "devdoc": {
    "methods": {}
  },
  "userdoc": {
    "methods": {}
  }
}